:020000040000fa
:080000000001040000000000f3
:020000040000fa
:100200002f80200000ff2000000188000000000077
:100210000c000700801c20000100200011000700d6
:10022000000020000000e000020032000000020098
:100230000000000090010200000000000040da0011
:100240000000fe004440a900000020000000e00083
:100250000300320000002000a00188004440a800f4
:100260000000060091018800800078000000eb008b
:1002700015003700e280400032a0b4009101ba00be
:10028000e280400032a0b4009102ba00e280400057
:1002900032a0b4000002eb00472bde00f507b200ed
:1002a000602ce10004003a000059eb008301e900f2
:1002b000fdff3e00040037006128e100010032002c
:1002c0000082eb00040007001101ba000200e00008
:1002d000e8ff3a00000006003159ba008301e90046
:1002e0000c0032002159ba008301e90008003200f5
:1002f0000400e00003003a00e280400032a0b400b5
:10030000f5ff370011d9ba008301e900faff3a007e
:100310008100e800e180400032a0b4000000060047
:020000040000fa
:10000800d0010000d0010000d0010000d0010000a4
:10001800d0010000d0010000d0010000d001000094
:10002800d0010000d0010000d0010000d001000084
:10003800d0010000d0010000d0010000d001000074
:10004800d0010000d0010000d0010000d001000064
:10005800d0010000d0010000d0010000d001000054
:10006800d0010000d0010000d0010000d001000044
:10007800d0010000d0010000d0010000d001000034
:10008800d0010000d0010000d0010000d001000024
:10009800d0010000d0010000d0010000d001000014
:1000a800d0010000d0010000d0010000d001000004
:1000b800d0010000d0010000d0010000d0010000f4
:1000c800d0010000d0010000d0010000d0010000e4
:1000d800d0010000d0010000d0010000d0010000d4
:1000e800d0010000d0010000d0010000d0010000c4
:0800f800d0010000d00100005e
:020000040000fa
:10010800d0010000d0010000d0010000d0010000a3
:10011800d0010000d0010000d0010000d001000093
:10012800d0010000d0010000d0010000d001000083
:10013800d0010000d0010000d0010000d001000073
:10014800d0010000d0010000d0010000d001000063
:10015800d0010000d0010000d0010000d001000053
:10016800d0010000d0010000d0010000d001000043
:10017800d0010000d0010000d0010000d001000033
:10018800d0010000d0010000d0010000d001000023
:10019800d0010000d0010000d0010000d001000013
:1001a800d0010000d0010000d0010000d001000003
:1001b800d0010000d0010000d0010000d0010000f3
:1001c800d0010000d0010000d0010000d0010000e3
:1001d800d0010000d0010000d0010000d0010000d3
:1001e800d0010000d0010000d0010000d0010000c3
:0801f800d0010000d00100005d
:020000040000fa
:100320000000fa00c602a900c622a90001000700c9
:10033000feff37000000fa00004080000000e800e7
:1003400000408800004080000000e0000e003a00fd
:10035000cac2bf00614060000041780002407800de
:100360000080ea008180ea00614060006141600035
:10037000a12c200091407800e0cfb30000c06000c5
:1003800002407000cae2b7000080fa0000000600d8
:020000040000fa
:100390000008000002000000000000000000000053
:020000040000fa
:0403a0000000fe005b
:020000040000fa
:0200000400fffb
:10f8000000000000010000000200000003000000f2
:10f8100004000000050000000600000007000000d2
:10f8200008000000090000000a0000000b000000b2
:10f830000c0000000d0000000e0000000f00000092
:00000001FF
