:020000040000fa
:080000000001040000000000f3
:020000040000fa
:100200008f9c200000ff20000001880000000000fb
:100210000c000700407621000100200011000700bb
:10022000000020000000e000020032000000020098
:10023000000000006e130200000000000040da0021
:100240000000fe004440a900800120000000e00002
:100250000300320000002000a00188004440a800f4
:100260000000060091018800800078000000eb008b
:1002700015003700e280400032a0b4009101ba00be
:10028000e280400032a0b4009102ba00e280400057
:1002900032a0b4000002eb00472bde00f507b200ed
:1002a000602ce10004003a000059eb008301e900f2
:1002b000fdff3e00040037006128e100010032002c
:1002c0000082eb00040007001101ba000200e00008
:1002d000e8ff3a00000006003159ba008301e90046
:1002e0000c0032002159ba008301e90008003200f5
:1002f0000400e00003003a00e280400032a0b400b5
:10030000f5ff370011d9ba008301e900faff3a007e
:100310008100e800e180400032a0b4000000060047
:100320000000000000000000881f78000204780030
:1003300014000700080040004f0478000000060089
:100340000000fa00881f7800000478003fb9970089
:10035000ea81570080007800401920001000070053
:10036000800078000000e000020035000040eb0053
:1003700000f47800010078004f0478000080fa0053
:10038000000006008001eb000200370061f07900f8
:100390008301e800828f5100fcff3a000000060054
:1003a0006200fa00889fbe008a9fbe000004be0063
:1003b000020578008300780060f92f000f004000ec
:1003c000b000070088979f0099979f000000eb00fe
:1003d000a09f9f009a4578000b80fb000000ea0078
:1003e000cf04de0050c2b30080cf550002003200bf
:1003f00009047800010037000904e9000800e00062
:100400000b0034001f909700080178008a007800e4
:100410008f9197000300010090979f000000e0007b
:10042000930032002f98970000004400a09f9f0087
:100430000905450050c2b30080cf550004003200ca
:100440000b04e000e3ff3a002f9897008900370083
:100450000000eb00809f9f00f0979f00e0979f00b7
:10046000d0979f00c0979f00b0979f00c09f9f00ac
:1004700009003700a09b20000080500000004000d1
:10048000e19a2000e10078004f9897000100700089
:10049000c09f9f000a05e8001a4478008800fb000e
:1004a000a09b20007c000700800078000000e00096
:1004b000f0ff3a00a0c2b300804f54000e003a0093
:1004c000bf8897000180e900b08f9f00100078007e
:1004d000b09f9f000000e00005003d000000ea0022
:1004e000b09f9f004f9897000020a000c09f9f00e2
:1004f0000a05e80010003700b19f9f00090037008f
:10050000bf989700f0ff2700808f50000400320052
:100510006a08b9000000410003004000b09f9f003e
:100520000a05e8001a01fb0003fd2f00030041004b
:10053000e90f5000f2ff3600e0c2b3009a4f1000fe
:10054000040032000080eb00909f9f008a04780036
:100550001c0037008a04e800a0c2b300994f1000c5
:1005600007003a00bf8897000180e900b08f9f0024
:1005700010007800909f9f008a84e80011003700e7
:100580000000eb00909f9f00090037009f989700a4
:10059000f0ff2700808f5000040032006a08b90085
:1005a0000000410003004000909f9f008904e80084
:1005b0001901fb0003fd2f0003004100e90f50006b
:1005c000f2ff3600194478008800fb00009c2000f0
:1005d000310007000000e00002003a00004478000b
:1005e000010037008904e800a87f9f0080c6b3009f
:1005f000804f540004003a00994f14000a003a005a
:100600006640500006003700c0c6b300804f54005b
:1006100005003a00994f140003003a00654040007d
:10062000a07f9f008904e8000905e800cbfb2f00ac
:100630008f8545001901fb0060f92f000f00400075
:100640000084e8008b0178008000780008007800c2
:100650001a0007000000e00005003a008b00780057
:1006600008007800580107000000e00059ff3d0035
:100670000080eb004f05be004f04be000080fa0072
:10068000000006000200fa00f1bf9f000108780098
:100690000080fa0000000600040037000204e000b9
:1006a00001003a00000005000000e8001041780059
:1006b000814f5100f9ff3a0000000600889fbe00fc
:1006c0008a1f7800000478000102780082447800d4
:1006d00003057800e0c6b300804f5100d20032001d
:1006e00015003c006b405000804f51002400320048
:1006f0000a003c0070405000804f51000f01320052
:1007000065404000804f51007400320050c2b30079
:10071000804f510020013a001c01370040c6b30051
:10072000804f51001b00320065404000804f510057
:1007300019013a001700370030c7b300804f51004d
:10074000fe00320007003c0064405000804f510022
:10075000620032000040e800804f51000e013a0074
:10076000e700370050c7b300804f51005b003200f4
:1007700063404000804f510007013a0057003700a6
:100780009180e900010a780078009000917178006a
:1007900007013700a8609000c0c6b30080cf5000aa
:1007a0000a003a009400780064805000000a780043
:1007b0001000be004f89de00cf91de000002be00b7
:1007c00002037800820378001300370010c7b300db
:1007d00080cf500003003200a0c6b30080cf50008d
:1007e00006003a009400780068805000000a780003
:1007f0003002be002003be00070037001480e9006d
:10080000000a78001000780000027800cfa2de0015
:100810000503780086037800049cbe000694be00a1
:10082000a860900080c6b30080cf50000e00320058
:1008300020c6b30080cf500005003a000400fb0042
:10084000cf80de0001017800820178000a003700c5
:1008500040c7b30080cf5000030032006640400024
:1008600080cf500006003a0004007800cf80de0000
:100870000101780082017800009cbe000294be0055
:100880003800be002801be00e00f5000e08f580085
:10089000e00f5900e08f590003003d007800900000
:1008a000d1c2b3000a003700081090000018a3005e
:1008b0000300320078009000b1c2b300040037009a
:1008c0000008a300530032007800900001c2b3007a
:1008d000017578000000e8004d003700a860900026
:1008e000c0c6b30080cf500006003a0094007800e4
:1008f00064805000000a78001002be006033b80027
:100900001300370010c7b30080cf5000030032003f
:10091000a0c6b30080cf500006003a0094007800d3
:1009200068805000000a78003002be002003be003c
:10093000070037001480e900000a780010007800f2
:1009400000027800050020000600200007002000bb
:10095000049cbe000694be00a860900080c6b30050
:1009600080cf50000e00320020c6b30080cf500070
:1009700005003a000480fb00010020000200200076
:10098000030020000a00370040c7b30080cf5000aa
:10099000030032006640400080cf500006003a005d
:1009a0000400780001002000020020000300200065
:1009b000009cbe000294be00081090000038a30006
:1009c000140032003800be002801be00e00f5000c5
:1009d000e08f5800e00f5900e08f59000d00320001
:1009e00080c7b30080cf54000300320080c5b3003d
:1009f00080cf540007003a007800900001c3b30094
:100a0000017578008000e80009f578000080e800b2
:100a10007004980078009000000045006004980081
:100a20008940780042003700a8609000c0c6b3003b
:100a300080cf5000250032000a003c006440500086
:100a400080cf50002800320000c0e80080cf500066
:100a5000140032006840500080cf500022003a005d
:100a60000a00370040c7b30080cf50001e0032009c
:100a70006640400080cf50001b00320069405000ab
:100a800080cf500018003a00060037001480e900bb
:100a9000000a780010007800485c90000848780050
:100aa000450037001480e900000a78001002780041
:100ab00068089000cf80de00010178008201780094
:100ac000009abe000292be003b0037001480e9008d
:100ad000000a78001001780068089000cf80de00de
:100ae0000089be00340037001480e900000a780055
:100af00010007800680c9000080878002e0037007d
:100b00001180e9008008780010007800cf80de00b6
:100b10000101780082017800009cbe000294be00b2
:100b200078009000000045006004980081c7b30081
:100b300008007800ee0007001f0037001480e9006d
:100b4000000a7800100078006004980058099000ae
:100b50000200e00002003d007202070009003700b9
:100b60008000eb0076020700800078000000e000c3
:100b70000300320068009000008050000100370040
:100b800058089000100c98000b0037007800900077
:100b9000027578000600370078009000800045005c
:100ba0000904e00001003a0059c2b3008948780006
:100bb0000000e800700498000000eb004f0578008a
:100bc0004f04be00000006000400fa00889fbe002b
:100bd0008a9fbe008c1f7800000478000106780010
:100be00070089000f8009000010050008808900004
:100bf000010050009808900001005000a8089000e3
:100c000001005000b808900001005000c808900092
:100c1000810550000002220090bf9f0000032300c6
:100c2000a0bf9f00081090000028a30018003a0001
:100c30000b00e000160034008b04780009057800f2
:100c4000e28f5400020036002a0020000200370024
:100c50000900e0000b00340058009000c80190002b
:100c60000a017800ee80570003000100500498004c
:100c70000000e00096003200680890000000450087
:100c8000600c98008a8454004240a900ebff3c00ad
:100c9000780190000200e0000b0034005800900042
:100ca000c80190008c0078000300010050049800f7
:100cb0000000e0008600320068089000f800900014
:100cc00001004000600c9800880c90000900e000d2
:100cd0001500340009057800e28f54000200360048
:100ce0002a002000020037000900e0000b00340059
:100cf00058009000c80190000a017800ec8057006d
:100d000003000100500498000000e0007000320071
:100d10006808900000004500600c98008a84540028
:100d20004240a900ebff3c00180990000200e000df
:100d30000b003400e800900058009000c8019000bb
:100d400003000100500498000000e0006000320041
:100d5000680890009808900001004000600c98001e
:100d6000a80c90000900e000150034000905780087
:100d7000e28f5400020036002a00200002003700f3
:100d80000900e0000b00340058009000c8019000fa
:100d90000a017800ec80570003000100500498001d
:100da0000000e0004a0032006808900000004500a2
:100db000600c98008a8454004240a900ebff3c007c
:100dc000380990000200e0000d003400e8009000b7
:100dd000180890008080400058009000c8019000e2
:100de00003000100500498000000e00038003200c9
:100df00068089000b808900001004000600c98005e
:100e0000c80c90000900e0001500340009057800c6
:100e1000e28f5400020036002a0020000200370052
:100e20000900e0000b00340058009000c801900059
:100e30000a017800ec80570003000100500498007c
:100e40000000e00022003200680890000000450029
:100e5000600c98008a8454004240a900ebff3c00db
:100e6000081090000028a3001b0032000b00e000d7
:100e7000190034008b04780009057800e28f5400d3
:100e8000020036002a002000020037000900e000be
:100e90000b00340058009000c80190000a0178004f
:100ea000ee80570003000100500498000000e000ad
:100eb000070032006808900000004500600c9800b0
:100ec0008a8454004240a90003003400eaff37003e
:100ed0000080eb00010037000000eb004f067800b7
:100ee0004f05be004f04be000080fa00000006005f
:100ef0002f03b000889fbe008a9fbe008c9fbe005b
:100f00008e1f780000077800d0992000c0b79f009e
:100f100080c5b30080cf500008003200c298200086
:100f2000c2b79f007740400080cf500003003a00d6
:100f300083002000b3b79f000a00370080c7b300ca
:100f400080cf500005003200a4002000b4b79f00fd
:100f500080c5b30080cf500002003a000501200098
:100f6000b5b79f003e04be002e05be0040c6b300cc
:100f700080cf5000030032006540400080cf500019
:100f80000b003a00e00f5400e08f5c00e00f5d00c2
:100f9000e08f5d0006003d006000b8006011b80001
:100fa00008045000898458000a0559008b855900af
:100fb0003fb19700e80f510003003200f00f5100dd
:100fc00045003a00020037003c00200001003700d5
:100fd0004c002000e00f5400e08f5c00e00f5d004b
:100fe000e08f5d0005003a005e089000830120005c
:100ff000a3b79f000000e000080032003fb2970056
:101000000400e90008006000cfb297006540780056
:1010100090df9f0070012000a0b79f008c00780037
:101020008100e900050033008b05d1000a85d3005b
:101030008984d3000884d300f9ff3700089fbe00dd
:101040000a97be002fb197000200e90023fc2f0091
:101050008f81410000844100140037002fb09700b9
:101060000000e900a0b79f003fb197000200e9002f
:1010700004006000cfb19700635478003e00be00ca
:101080002e01be000c0278000402e90005003300c6
:101090008381d1000281d3008180d3000080d300fe
:1010a000f9ff3700009fbe000297be003e02be005f
:1010b0002e03be00e00f5200e08f5a00e00f5b00ed
:1010c000e08f5b00da0034002fb097000000e000f2
:1010d000e2ff3c00d6003700ae60900080c6b3004f
:1010e00080cf50000b00320006003c000104e000fd
:1010f000080032006640500080cf500073003a0074
:1011000004003700c0c6b30080cf50006f003a0023
:1011100031003700080178000800e00005003a00bf
:101120005e08900081012000a1b79f000000e00050
:1011300009003200bfb19700110009000381d800f7
:101140008000fd004fb297006440780090df9f0060
:1011500075012000a5b79f003fb29700110009005c
:101160000481d80080017800afb297000500e90043
:1011700021fc2f008f804000008240000c003700cf
:10118000bfb29700110009008501d8000001780066
:101190002fb097000000e900a0b79f000590b900ac
:1011a00000805100cfb09700615278008201780032
:1011b0000300e000030034002fb197000200e000bc
:1011c000efff3c0003007800cf80de0001017800d3
:1011d000820178003a0037000806be00e00f540094
:1011e000e08f5c0005003a005e089000830120005b
:1011f000a3b79f000000e000090032003fb2970053
:101200006121b9000c00be00dd000700cfb29700dd
:101210006540780090df9f0070012000a0b79f001c
:101220003fb297006121b9000c00be00d700070053
:101230000006be00afb297000500e90021fc2f00b8
:101240008f8040008080400091b79f0011003700e0
:101250003fb197006114b9000801be000c00be0048
:10126000da0007000005be00afb197008301e90076
:10127000a3b79f000801be00bb0007000000560096
:101280001fb29700cfb297006552780094b79f00c5
:101290000a06be00e00f5600e08f5e000300340037
:1012a0002fb097000000e000e9ff3c004feade00ad
:1012b000cfa2de000c00be0004017800840178009b
:1012c000009fbe000297be0059003700e00f540097
:1012d000e08f5c00e00f5d00e08f5d0005003a00ec
:1012e0005e08900081012000a1b79f000000e0008f
:1012f0000d0032003fb1970002027800cfa2de005d
:1013000005037800860378000800be000a01be00cd
:101310003e0107004fb297006440780090df9f00c5
:1013200075012000a5b79f003fb197000202780029
:10133000cfa2de0005037800860378000800be0017
:101340000a01be002a010700009fbe000297be00ee
:10135000afb197000300e90024fc2f000f02420008
:101360000006420024003700bfb297000504780051
:10137000cfc4de00090578008a0578000802be00a7
:101380000a03be005fa89700efa897007fa9970007
:101390008fb1970021010700d0b79f00e1b79f00f0
:1013a000f2b79f0083bf9f002fb097000000e900b5
:1013b000a0b79f000802be000a03be005fb09700fe
:1013c000efb097007fb197008fb9970099010700a0
:1013d0005faa970000005200cfb2970065567800d0
:1013e0005fb09700efb097007fb197008fb997007b
:1013f000009fbe000297be003e00be002e01be0050
:10140000d0af9f00e1af9f00f2af9f0083b79f0076
:10141000e00f5000e08f5800e00f5900e08f5900b6
:1014200003003400afb097000100e000ceff3c00a5
:101430003fb19700e80f510013003a000e109000e2
:101440000038a30010003200afb19700f78f5100b1
:1014500006003e0024fc2f000f02420083004200e1
:1014600000c3b300914f100007003200afb29700e5
:101470008502e900a5b79f0000c3b30021fc2f003f
:101480008f80400080f07a00afb197007881110022
:10149000120f98006e00900024fc2f000f024200f3
:1014a00083004200b7fb07001e0990005e08900011
:1014b000800f510006003d0002005000000f980010
:1014c0000e1090000040a100001798000f00370098
:1014d0000000e0000d003d000e1090007400600060
:1014e000f00f500009003a007e089000fe009000c6
:1014f000010050008e0890000100500002005000d2
:101500004240a90001003400000f98004f07780006
:101510004f06be004f05be004f04be002f03b100b2
:101520000000060080007800010037000000e8009d
:101530001004e000fdff3a0001005000000006002a
:101540008001eb00040037008301e80090cf100019
:10155000040032000000e800828f5100faff3a00d8
:101560000000eb0000000600020ab900001bb900f1
:101570000200b80081004200810043000000060024
:10158000020007000400be00000006006022b80050
:10159000060220000000d0008180d2000482d20028
:1015a0008582d2000000a0000202520083825a000d
:1015b000030031000202420083824a000000a100c1
:1015c0000603e900f3ff3a0000000600839f68006d
:1015d0000100e00002003d0060001000e080180003
:1015e0000300e00002003d0060011100e0811900ed
:1015f000e6ff07004f00e00002003b006000100023
:10160000e080180000000600881f780000047800c1
:101610005001be004000be0004004000858048002c
:101620000601490087814900009cbe000294be006b
:101630000400e1000588e1000690e1000798e10060
:1016400002003100680044001008e8004f047800f0
:1016500000000600f4874700889fbe008a9fbe00f6
:101660008c9fbe008e1f78000205be000004be00e5
:10167000d4b79f00e5b79f00f6b79f0087bf9f00d4
:101680000000eb00c0b79f00b0b79f00a0b79f005d
:1016900090b79f0080b79f000d042000bfb0970057
:1016a0004fb09700000140000000e0000f003d0037
:1016b0004f08de0000007100c0b79f009e000700c9
:1016c00001003d0012002000a100070001003d00c4
:1016d00012002000a6000700b1000700b6000700b6
:1016e0000f004000c8ff0700220037004f08de004f
:1016f00000067100ccb79f008f00070001003d007d
:10170000120020009200070001003d00120020009e
:1017100097000700a20007000fb297009fb2970042
:101720002fb39700bfb39700a90007000000520035
:1017300081805a0002015b0083815b0080b79f00bb
:1017400091b79f00a2b79f00b3b79f000007eb00bf
:101750009f0007000020e10001a8e10002b0e100c5
:1017600003b8e100010031001e0020000e00560009
:10177000c0b79f004fb297000400e000070035009b
:1017800010002000010020006011b8000804700063
:10179000898470000a0571008b8571008d06e9004f
:1017a000beff3a000400e00003003d008200070095
:1017b0000f00400094ff07004fa897000000e000d2
:1017c00004003a000fb497009fb497002fb597001c
:1017d000bfb59700940007004f0778004f06be0082
:1017e0004f05be004f04be004f01b10000000600cf
:1017f000881f780018002000881f780095ff0700d8
:101800008f87e9004f04780000000600801feb007e
:1018100090ff07008f87e90000000600889fbe0048
:101820008a9fbe008c1f78006e00070007003d00f5
:1018300073000700e00f5b00e08f5b0007003d00d6
:10184000320007000006eb000400370034000700f8
:1018500002003d002a0007001c0020007200070063
:10186000e3ff07000203be000002be000c00e00020
:1018700001003200220007000400be000601be0085
:101880004f0678004f05be004f04be000000060062
:10189000889fbe008a9fbe008c1f78005100070001
:1018a00005003d0056000700e00f5b00e08f5b0085
:1018b00006003d00040037001900070003003d004a
:1018c0006000b8006011b800100007005600070063
:1018d000ceff07000203be000002be000c00e000c5
:1018e00001003200060007000400be000601be0031
:1018f0004f0678004f05be004f04be0000000600f2
:101900006000b8006011b800000037000402500009
:10191000858258000603590087835900000006009d
:101920000006eb00e00f5200e08f5a00e00f5b0072
:10193000e08f5b00000006000180400090b79f0030
:101940000001eb008fb097000100e00000000600ee
:101950000200700090b79f000180400080b79f0098
:101960000001eb00ffa897000100e0000000060066
:101970000200700080b79f00018040006faa9700ae
:10198000cf20de0001007000f0af9f000402420093
:10199000250007004f18de0000027200000006005c
:1019a000e4af9f000804440089844c000a054d0000
:1019b0008b854d00000006003fb29700cfb2970024
:1019c0005fb39700efb3970000fe2f000000060002
:1019d0003fb09700cfb097005fb19700efb197008d
:1019e000000006000205be000004be00e00f50002b
:1019f000e08f5800e00f5900e08f5900000006000a
:101a00006000b8006011b8000804500089845800d4
:101a10000a0559008b8559001c002000e00f520078
:101a2000e08f5a00000006000800be000a01be0058
:101a300000000600889fbe008a9fbe008c1f7800b1
:101a40000205be000004be000006eb00e00f5000df
:101a5000e08f5800e00f5900e08f590007003d006b
:101a60006000b8006011b800080450008984580074
:101a70000a0559008b8559001c002000e00f520018
:101a8000e08f5a00e00f5b00e08f5b0002003d003a
:101a90000f0007000c00a2000800be000a01be00f3
:101aa000120007000203be000002be000c00e000ae
:101ab00001003200060007000400be000601be005f
:101ac0004f0678004f05be004f04be000000060020
:101ad0006000b8006011b800040250008582580010
:101ae000060359008783590000000600889fbe0046
:101af0008a9fbe008c9fbe000404b8000506b80093
:101b00008904460060854e000606b8000a054600b6
:101b1000e0854e000706b8008b054600040eb800ad
:101b2000890446000a854e00e0854d00050eb80088
:101b30000a0546008b854e00060eb8008b05460050
:101b40000416b8000a0546008b854e000516b8003d
:101b50008b054600041eb8008b0546000800be0039
:101b60000a01be004f06be004f05be004f04be0076
:101b7000000006000000fa0090e0a9009160a900b2
:101b800088e0a9008960a9000000eb00000e880031
:101b90000000eb00400e88000000eb00500e8800b3
:101ba0000080fa00000006000200fa00000f780032
:101bb00088e0a9008960a9001e00780067406000e5
:101bc0006740600067406000674060004401dd00de
:101bd000710a200091407800f0c8b30000c0600096
:101be00002407000a7e0b700000720001e00600060
:101bf0004400de0067406000674060004401dd0093
:101c0000910a200091407800f0c8b30000c0600045
:101c100002407000a9e0b7009e0078006880600074
:101c20004300de0061406000c700dd0090c0bf00df
:101c30000074a1000140700090e0b700000820008f
:101c40001e0060004700de006140600061406000ef
:101c50004301dd00110920009140780070cfb300ee
:101c600000c060000240700091e0b7000080fa0000
:101c7000000006000a00fa00000f78001107980023
:101c80002207980033079800440798001e00780048
:101c9000200e88001e009000300e88003e0090004c
:101ca000400e88004e009000500e88002e009000dc
:101cb000000e88000080fa00000006000200fa0012
:101cc000000f78001e007800a00e88000080fa0047
:101cd000000006000600fa00000f780011079800c7
:101ce000424798004e4090006140600061406000b3
:101cf0006140600061416000a11c200091407800bb
:101d0000e0cfb30000c0600002407000cae1b7003d
:101d10001e0078000000400080007800601d200058
:101d20000080e900008040009e00900001087800db
:101d30000080fa00000006000200fa00000f7800a0
:101d40001e007800600e88000080fa000000060087
:101d50000200fa00000f78001e007800800e880054
:081d60000080fa0000000600fb
:020000040000fa
:0200000401f009
:04000000f7ff000006
:020000040000fa
:0200000401f009
:04000400ff7f00007a
:020000040000fa
:0200000401f009
:040008007fff000076
:020000040000fa
:0200000401f009
:04001400ffff0000ea
:020000040000fa
:10000800be170000be170000be170000be17000094
:10001800be170000be170000be170000be17000084
:10002800be170000be170000be170000be17000074
:10003800be170000be170000be170000be17000064
:10004800be17000002120000be170000be17000015
:10005800be170000be170000be170000be17000044
:10006800be170000be170000be170000be17000034
:10007800be170000be170000be170000be17000024
:10008800be170000be170000be170000be17000014
:10009800be170000be170000be170000be17000004
:1000a800be170000be170000be170000be170000f4
:1000b800be170000be170000be170000be170000e4
:1000c800be170000be170000be170000be170000d4
:1000d800be170000be170000be170000be170000c4
:1000e800be170000be170000be170000be170000b4
:0800f800be170000be17000056
:020000040000fa
:10010800be170000be170000be170000be17000093
:10011800be170000be170000be170000be17000083
:10012800be170000be170000be170000be17000073
:10013800be170000be170000be170000be17000063
:10014800be17000002120000be170000be17000014
:10015800be170000be170000be170000be17000043
:10016800be170000be170000be170000be17000033
:10017800be170000be170000be170000be17000023
:10018800be170000be170000be170000be17000013
:10019800be170000be170000be170000be17000003
:1001a800be170000be170000be170000be170000f3
:1001b800be170000be170000be170000be170000e3
:1001c800be170000be170000be170000be170000d3
:1001d800be170000be170000be170000be170000c3
:1001e800be170000be170000be170000be170000b3
:0801f800be170000be17000055
:020000040000fa
:101d68002564000020250000640d00000a00000022
:101d7800434f00003220000045720000726f0000df
:101d880072210000212100000d0a0000000000005f
:020000040000fa
:101d98000000fa000fc2bf000004a2000000fb0010
:101da800610060000080fa00000006000000fa00f0
:101db8000de2a9008d20a9008d40a9008520a90069
:101dc8008540a9000080fa00000006000200fa0021
:101dd800000f78008520a9008540a9001e00780022
:101de80067406000674060006740600067406000cf
:101df8004401dd008109200091407800f0c8b3005b
:101e080000c060000240700098e0b70000072000a2
:101e18001e0060004400de0067406000674160000b
:101e2800910920009140780080cfb30000c0600085
:101e38000240700099e0b7009e007800688060005a
:101e48004300de00614060006140600000414000e6
:101e5800d108200091407800d0cfb30000c06000c6
:101e6800024070008de0b700000820001e006000ee
:101e78004700de0061406000614060004201dd0013
:101e8800d108200091407800b0cfb30000c06000b6
:101e9800024070008de0b7000080fa0000000600e4
:101ea8000000fa000ec2bf00614060000080fb0025
:101eb8000080fa00000006000c00fa0020079800d5
:101ec80031079800420798000000eb0010079800bf
:101ed8003e009000000f7800230037009e0090001d
:101ee8004e009000808f5000040031001e009000ca
:101ef8000000e80010079800030037002e0090004b
:101f0800500798001d003700e5ff07000004e000b7
:101f1800f2ff32000000eb00100798000cc2bf006f
:101f280066406000e64f500007003a0091108000bc
:101f38003e009000010878003e0090000080e80014
:101f48003007980005003700901080008040780026
:101f58001e007800014878001e0fe8002e0090004f
:101f68000000e900200798002e0090000000e00023
:101f7800e5ff3a002e009000500798005e009000a0
:101f88000080fa00000006000600fa00000f780042
:101f980011079800220798002e009000a0108800d2
:101fa8001e007800601088001e00900070108800e5
:101fb8000080fa00000006000400fa0010079800ec
:101fc8001e009000000f78000cc2bf006640600041
:101fd800e64f500019003a000a0037000fc2bf0050
:101fe800624060000004e000fcff3a001e00900020
:101ff80010007800801088001e0090000080e80023
:10200800100798001e009000100078000000e00003
:10201800f2ff3a000d0037000fc2bf0062406000b7
:102028000004e000fcff3a001e0078001040780031
:102038000000fb00801088001e0fe8001e007800da
:10204800104078000004e000f3ff3a000080fa0036
:10205800000006000200fa000cc2bf0066406000e3
:10206800e64f500003003a0090108000000f7800ff
:102078000400370091108000f00f2000808060007d
:10208800010f78001e0078000080fa0000000600aa
:102098000200fa00000f78000cc2bf006640600022
:1020a800e64f500003003a001e00780080108800b8
:1020b80003003700f00f20001e0060008010880029
:1020c8000080fa00000006000000fa0019c2bf00f4
:1020d8000004a2000000fb00610060000080fa001c
:1020e800000006000000fa0017e2a9008f00a9000e
:1020f8008f20a9008700a9008720a9000080fa0086
:10210800000006000200fa00000f78008700a9000e
:102118008720a9001e0078006740600067406000c3
:102128006740600067416000010a20009140780024
:1021380080cfb30000c0600002407000a0e0b7008c
:10214800000720001e0060004400de0067406000b9
:10215800674060004401dd00010a200091407800da
:10216800f0c8b30000c0600002407000a0e0b700f3
:102178009e007800688060004300de0061406000d7
:1021880061416000f108200091407800e0cfb30081
:1021980000c06000024070008fe0b7000008200017
:1021a8001e0060004700de00614060006140600082
:1021b80000414000f108200091407800d0cfb300e2
:1021c80000c06000024070008fe0b7000080fa0095
:1021d800000006000000fa0018c2bf00614060005d
:1021e8000080fb000080fa00000006000c00fa00e6
:1021f8002007980031079800420798000000eb007c
:10220800100798003e009000000f78002300370068
:102218009e0090004e009000808f50000400310016
:102228001e0090000000e800100798000300370027
:102238002e009000500798001d003700e5ff0700aa
:102248000004e000f2ff32000000eb0010079800e5
:1022580016c2bf0066406000e64f500007003a0013
:10226800e11080003e009000010878003e009000d8
:102278000080e8003007980005003700e010800073
:10228800804078001e007800014878001e0fe800a2
:102298002e0090000000e900200798002e00900012
:1022a8000000e000e5ff3a002e009000500798007b
:1022b8005e0090000080fa00000006000600fa00a8
:1022c800000f780011079800220798002e00900050
:1022d800f01088001e007800b01088001e009000e2
:1022e800c01088000080fa00000006000400fa0010
:1022f800100798001e009000000f780016c2bf005b
:1023080066406000e64f500019003a000a003700a6
:1023180019c2bf00624060000004e000fcff3a0000
:102328001e00900010007800d01088001e00900059
:102338000080e800100798001e0090001000780048
:102348000000e000f2ff3a000d00370019c2bf009c
:10235800624060000004e000fcff3a001e007800c4
:10236800104078000000fb00d01088001e0fe80025
:102378001e007800104078000004e000f3ff3a00e7
:102388000080fa00000006000200fa0016c2bf0032
:1023980066406000e64f500003003a00e0108000fd
:1023a800000f780004003700e1108000f00f2000d3
:1023b80080806000010f78001e0078000080fa001d
:1023c800000006000200fa00000f780016c2bf00e5
:1023d80066406000e64f500003003a001e00780097
:1023e800d010880003003700f00f20001e006000a6
:1023f800d01088000080fa00000006003600f800bf
:10240800809fbe00829fbe00849fbe00869fbe0044
:102418003400f80000002000a00188000000fa0045
:10242800190037000bff070054e8b70054c8bf0075
:10243800ea4f50000f00320041852000914078009b
:1024480000c2b30080cf50000a003200514c800017
:102458004285200012417800c0962000008040008c
:1024680002487800504c80000000e800504c88007a
:102478000500370054c8bf00ea4f500002003a0078
:102488000000eb00504c880085fe07000004e000c7
:10249800e4ff3a008520a9000080fa003400f90022
:1024a8004f03be004f02be004f01be004f00be00ea
:1024b8003600f900004006000c00fa00604798005a
:1024c8006e4090000000fb006101b90000fd2f0084
:1024d800f1ff2f0002014000838148004207980065
:1024e8005307980090002000010020004e01900042
:1024f800de019000800f5100818f59002b003e00b3
:102508004e009000de0090000060010009003700d6
:102518000b0037000d0037000f003700110037009f
:10252800130037001500370017003700190037006f
:102538001b0037000000eb00000f78001d0037007b
:1025480010002000000f78001a003700200020003b
:10255800000f78001700370030002000000f7800c7
:102568001400370040002000000f780011003700e9
:1025780050002000000f78000e0037006000200097
:10258800000f78000b00370070002000000f780063
:102598000800370080002000000f78000500370091
:1025a80090002000000f7800020037000000eb00c8
:1025b800000f78001e0078000080fa000000060076
:1025c8000400fa00204798003147980034020700b9
:1025d80006c2bf00614060000004e000fcff3a0052
:1025e8002e409000a601070008c2bf0061406000ad
:1025f8000004e000fcff3a002f0107003e40900075
:102608009f01070008c2bf00614060000004e000ad
:10261800fcff3a0028010700b801070006c2bf0006
:10262800624060000004e000fcff3a002e40900089
:102638000004a0009201070008c2bf0061406000ca
:102648000004e000fcff3a001b01070081010700bd
:10265800004f780008c2bf00624060000004e0003c
:10266800fcff3a00140107001102070006c2bf0070
:10267800644060000004e000fcff3a001e80fb009c
:102688000080fa00000006000400fa001007980015
:102698000b0037000000eb00000f78000200370045
:1026a800000000001e0fe800500b20009e0f1000d5
:1026b800fbff36001e0090000000e900100798009c
:1026c8001e0090000000e000f2ff3a000080fa00cf
:1026d800000006001400fa00881f78007a0007003e
:1026e80068000700c602a900ca02a800200020004e
:1026f800700798000d0037007e0090000084e90004
:102708007e0090008040780000cdb300acff070049
:10271800804078004096200000004400014878007e
:102728007e0090000000e800700798007e0090008e
:10273800e90f5000f0ff340064c9bf008080fb003f
:1027480065c9bf000080fb008080400066c9bf00eb
:102758000080fb008080400067c9bf000080fb004c
:102768008080400068c9bf000080fb008080400076
:1027780069c9bf000080fb00808040006ac9bf00b3
:102788000080fb00808040006bc9bf000080fb0018
:102798000080400082002000110009000200d800db
:1027a800600798006dc9bf0043ff070050079800f5
:1027b8006ec9bf0040ff0700400798006fc9bf00ff
:1027c8003dff07003007980070c9bf003aff0700b7
:1027d8002007980071c9bf0037ff0700100798004d
:1027e800de009000007122000088b9000001780026
:1027f800ce009000803e20000088b9008001410092
:102808002e0090006a00b90000017800be00900018
:10281800400620000088b900000041008080410087
:102828001e009000008f40001e00e0000c003400e5
:102838001e007800801f7800ee009000811f78004d
:1028480040eb2800801f7800e0802000baf60700df
:10285800e6875700e0802000a4fe07000600370046
:10286800e0802000c1eb28000e00090031587800f4
:10287800e08020009dfe0700803e200082ff0700c8
:102888009aff37000000fa0048fd070015fe070010
:10289800a0f32f004dfd070020f32f0019fe0700bd
:1028a800f20b2000d175270000f02e00b6fd0700be
:1028b800f2002000d175270000f02e007ffe0700ef
:1028c8000080fa00000006000000fa00350007004a
:1028d800b110200000202e00ff00070070f72f0025
:1028e800380007000080fa00000006000400fa0023
:1028f800204798006a01070006c2bf0061406000d7
:102908000004e000fcff3a0000cdb300dc00070043
:1029180008c2bf00614060000004e000fcff3a000c
:1029280065000700f500070006c2bf0062406000ae
:102938000004e000fcff3a0030c0b300d0000700fc
:1029480008c2bf00614060000004e000fcff3a00dc
:102958005900070010cdb300c900070008c2bf0026
:10296800614060000004e000fcff3a0052000700ec
:102978004f01070006c2bf00644060000004e00089
:10298800fcff3a001e80fb000080fa0000000600f1
:102998000000fa0006a2a9000682a8000080fa003a
:1029a800000006000000fa0007e2a9008da0a900b7
:1029b8008dc0a90085a0a90085c0a9000080fa00e3
:1029c800000006000200fa00000f780085a0a900a8
:1029d80085c0a9001e00780067406000674060005d
:1029e80067406000674060004401dd00a1092000e5
:1029f80091407800f0c8b30000c060000240700049
:102a08009ae0b700000720001e0060004400de00c6
:102a18006740600067416000b1092000914078007c
:102a280080cfb30000c06000024070009be0b70098
:102a38009e007800688060004300de00614060000e
:102a4800614060004501dd00d10820009140780018
:102a5800f0cdb30000c06000024070008de0b70008
:102a6800000820001e0060004700de006140600092
:102a7800614060004601dd00d108200091407800e7
:102a8800f0cbb30000c06000024070008de0b700da
:102a98000080fa00000006000000fa0008c2bf002b
:102aa8000080fb000000d100614060000080fb0056
:102ab8000080fa00000006000000fa00000037005d
:102ac80006c2bf00614060000004e000fcff3a005d
:102ad80006c2bf00644060000004e000f8ff3a004e
:102ae80006c2bf00684060000004e000f4ff3a003e
:102af80006c2bf00704060000004e000f0ff3a002a
:102b080009c2bf000044b2000004e000ecff3a0034
:102b18000080fa00000006000a00fa00100798007a
:102b280021079800320798000000eb00000f78009a
:102b3800260037000662a800090037009e007800ca
:102b48003e009000808f5000020031001e0fe80008
:102b5800030037001e00900040079800200037004f
:102b6800cdff07000004e000f4ff32000000eb0096
:102b7800000f780001202000914078002e0090007e
:102b8800014878002e0090000000e8002007980017
:102b98001e0090000000e900100798001e00900039
:102ba8000000e00003003a0006a2a8000682a80080
:102bb8000200370006a2a9000682a80006c2bf00cc
:102bc800704060000004e000fcff3a001e00900026
:102bd8000000e000d7ff3a000000eb004007980033
:102be8004e0090000080fa00000006000400fa0081
:102bf800000f78000e0037001e00780010407800a3
:102c08001f000700e14f400003003a00d0ff2f00eb
:102c1800100798000c00370008c2bf006140600030
:102c28000004e000fcff3a00a3ff07001e0fe800c5
:102c38001e007800104078000004e000eeff3a0023
:102c48000000eb00100798001e0090000080fa00ba
:102c5800000006000000fa000662a80006c2bf00d5
:102c6800684060000004e000fcff3a0008c2a900c8
:102c780000c2bf000080fb000080fa0000000600d0
:102c88000400fa00004f78001e40780002e2b70006
:102c980008c2bf0001c8b300014060000004e000a2
:102ca800030032000080eb00100798000200370094
:102cb8000000eb00100798001e0090000080fa004a
:102cc800000006000000fa0006a2a8000682a8007c
:102cd8000080fa00000006000400fa00000f7800e7
:102ce800110798001e009000201088001e00780030
:102cf800301088000080fa00000006000000fa008a
:102d08000622a8000080fa00000006000c00fa0065
:102d180030079800410798000000eb002007980052
:102d28000000eb001007980000c2bf00004f7800b9
:102d380008c2a900290037009e0090004e009000ac
:102d4800808f5000040031001e0090000000e80051
:102d580010079800030037002e00900050079800d5
:102d6800240037004cff07000004e000f2ff3200a7
:102d78000000eb0010079800012020009140780027
:102d88003e009000014878003e0090000000e800f6
:102d9800300798002e0090000000e80020079800f7
:102da80006a2a9000682a80006c2bf007040600003
:102db8000004e000fcff3a0006c2bf000044b20075
:102dc8000004e0000500320007c2bf007040600048
:102dd8000004e00001003a000782a80008c2bf0012
:102de800704060000004e000deff32002e0090001a
:102df800500798005e0090000080fa00000006006e
:102e08000200fa00000f780006c2a8000c00370084
:102e18001e007800104078001e0fe8001900070017
:102e280008c2bf00614060000004e000fcff3a00f7
:102e380085c0bf000042b2000004e000fcff320081
:102e48001e007800104078000004e000f0ff3a000f
:102e58000000eb000080fa00000006000000fa0005
:102e680008c2bf00624060000004e000fcff3200be
:102e780008c2a90000c2bf000080fb000080fa0061
:102e8800000006000200fa00004f78001e4078009b
:102e980002e2b7000782a8000080fa0000000600de
:102ea8000000fa000602a8000080fa0000000600f0
:102eb8000000fa000642a8000080fa0000000600a0
:020000040000fa
:102ec8007409000018000000020000004d4943008a
:102ed800524f430048495000000000000000000025
:102ee80000000000000000000000000000080000d2
:102ef8007401000000000000ae090000120000008c
:102f08000200000001000200000400000800100098
:102f180000000000202b2d0023300000c009000015
:102f28000800000002000000686a6c00747a4c0017
:102f3800000000008c0900002200000002000000d0
:102f480030313200333435003637380039616200a9
:102f58006364650066003000313233003435360072
:102f6800373839004142430044454600000000001c
:042f78000000000055
:020000040000fa
:042f7c000000fe0053
:00000001FF
